:020000040800F2
:1000000000280020491B0008D91A0008DF1A000840
:10001000E51A0008EB1A0008F11A000800000000B9
:10002000000000000000000000000000F71A0008B7
:10003000031B0008000000000F1B00081B1B00082A
:10004000911B0008911B0008911B0008911B0008E0
:10005000911B0008911B0008911B0008911B0008D0
:10006000911B0008911B0008911B0008911B0008C0
:10007000911B0008911B0008911B0008911B0008B0
:10008000911B0008911B0008911B0008911B0008A0
:10009000911B0008911B0008911B0008911B000890
:1000A000911B0008911B0008911B0008911B000880
:1000B000291B0008911B000800000000911B00088C
:1000C000911B00080000000000000000911B0008C8
:1000D00000000000911B0008911B000800000000B8
:1000E000911B0008911B0008911B000800000000F4
:1000F0000000000000000000000000000000000000
:0C01000000000000000000005FF808F1A3
:10010C0010B5054C237833B9044B13B10448AFF345
:10011C0000800123237010BD5C0000200000000053
:10012C00E831000808B5034B1BB103490348AFF392
:10013C00008008BD0000000060000020E8310008CD
:10014C0080B400AF064B1B68012B04D1044B00227A
:10015C001A60012300E000231846BD4680BC70479E
:10016C007800002080B400AF064B1B68012B04D133
:10017C00044B00221A60012300E000231846BD4600
:10018C0080BC70477C00002080B400AF064B1B681D
:10019C00012B04D1044B00221A60012300E0002340
:1001AC001846BD4680BC70478000002080B400AF6C
:1001BC00034B01221A6000BFBD4680BC704700BFD4
:1001CC007800002080B400AF034B01221A6000BFFE
:1001DC00BD4680BC704700BF7C00002080B400AFDF
:1001EC00034B01221A6000BFBD4680BC704700BFA4
:1001FC008000002080B500AF214B1B68214A1360A2
:10020C00214B1B681E4A13600221204801F0A6FFF7
:10021C0003461A461C4B1A601A4B1A68184B1B687B
:10022C009A422BD1164B1A68174B1B689A4225D150
:10023C00154B1A68164B1B689A420DD0124B1B6853
:10024C00134A1360104B1B68002B17D1FFF7AEFF3E
:10025C00104B64221A6011E00E4B1B68013B0D4AD7
:10026C0013600C4B1B68002B08D1074B1B68002B31
:10027C0001D1FFF79BFF074B64221A6000BF80BDC2
:10028C0004000020000000200800002000080140AD
:10029C000C0000203000002080B500AF214B1B6803
:1002AC00214A1360214B1B681E4A1360042120480D
:1002BC0001F054FF03461A461C4B1A601A4B1A687D
:1002CC00184B1B689A422BD1164B1A68174B1B689C
:1002DC009A4225D1154B1A68164B1B689A420DD0C1
:1002EC00124B1B68134A1360104B1B68002B17D161
:1002FC00FFF768FF104B32221A6011E00E4B1B689F
:10030C00013B0D4A13600C4B1B68002B08D1074BAB
:10031C001B68002B01D1FFF755FF074B32221A60E7
:10032C0000BF80BD14000020100000201800002029
:10033C00000801401C0000203000002080B500AFF8
:10034C00214B1B68214A1360214B1B681E4A13600A
:10035C000821204801F002FF03461A461C4B1A6084
:10036C001A4B1A68184B1B689A422BD1164B1A68F9
:10037C00174B1B689A4225D1154B1A68164B1B68F4
:10038C009A420DD0124B1B68134A1360104B1B681A
:10039C00002B17D1FFF722FF104B64221A6011E0DB
:1003AC000E4B1B68013B0D4A13600C4B1B68002B5A
:1003BC0008D1074B1B68002B01D1FFF70FFF074B30
:1003CC0064221A6000BF80BD2400002020000020A1
:1003DC0028000020000801402C00002030000020E4
:1003EC0080B500AFB04B1B68042B00F21E8201A23B
:1003FC0052F823F0150400086504000855050008A0
:10040C003F0600084F07000801222021A74801F0F1
:10041C00BCFE01224021A54801F0B7FE012280213B
:10042C00A24801F0B2FE01224FF480719F4801F006
:10043C00ACFE01224FF400719C4801F0A6FE012293
:10044C004FF48061994801F0A0FE974B0B221A6083
:10045C00FA2001F05BFAF1E100222021934801F02F
:10046C0094FE01224021914801F08FFE012280214F
:10047C008E4801F08AFE01224FF480718B4801F006
:10048C0084FE01224FF40071884801F07EFE0022A8
:10049C004FF48061854801F078FE854B1B68012B79
:1004AC0001D101F099F8834B1B68012B1AD1824BB7
:1004BC001B68032B0BDD804B00221A607E4B1B68E4
:1004CC005A1C7D490A60184600F0F0FF07E07A4B91
:1004DC001B685A1C78490A60184600F0E7FFFA209E
:1004EC0001F014FA754B1B68012B18D16E4B0222CC
:1004FC001A60734B1A68724B9B68D31A714A13605B
:10050C006F4B5B686F4A536001F066F86C4B5B682D
:10051C004FF47A7202FB03F3184601F0DDF9FFF792
:10052C000FFE0346012B40F082815F4B0C221A60B8
:10053C00012220215D4801F028FE01224FF4807138
:10054C005A4801F022FE72E100222021574801F0A6
:10055C001CFE01224021554801F017FE012280218A
:10056C00524801F012FE01224FF480714F4801F005
:10057C000CFE00224FF400714C4801F006FE0122E3
:10058C004FF48061494801F000FE494B1B68012B78
:10059C0001D101F021F8474B1B68012B1AD1464BB6
:1005AC001B68032B0BDD444B00221A60424B1B686B
:1005BC005A1C41490A60184600F078FF07E03E4B90
:1005CC001B685A1C3C490A60184600F06FFFFA2061
:1005DC0001F09CF9394B1B68012B15D1324B0322CE
:1005EC001A60374B9B68374A1360354B1B68354A8A
:1005FC00536000F0F1FF324B9B684FF47A7202FBB0
:10060C0003F3184601F068F9FFF79AFD0346012B36
:10061C0040F00F81244B0C221A6001222021234828
:10062C0001F0B3FD01224FF48071204801F0ADFDC3
:10063C00FFE0012220211D4801F0A7FD01224021ED
:10064C001A4801F0A2FD00228021184801F09DFDFE
:10065C0000224FF48071154801F097FD01224FF4F0
:10066C000071124801F091FD01224FF480610F4896
:10067C0001F08BFD0E4B1B68012B01D100F0ACFF80
:10068C000C4B1B68012B2AD10B4B1B68032B1BDD5E
:10069C00094B00221A60084B1B685A1C06490A6059
:1006AC00184600F003FF17E084000020000801400A
:1006BC00BC000020B40000208C000020AC00002006
:1006CC0034000020400000205D4B1B685A1C5C4924
:1006DC000A60184600F0EAFEFA2001F017F9594BAF
:1006EC001B68012B18D1584B04221A60574B1A68FF
:1006FC00564B9B68D31A564A5360544B5B68544A0A
:10070C00136000F069FF514B5B684FF47A7202FB87
:10071C0003F3184601F0E0F8FFF712FD0346012B36
:10072C0040F08980484B0C221A6001222021494854
:10073C0001F02BFD01224FF48071464801F025FD9C
:10074C0079E001222021434801F01FFD00224021C5
:10075C00404801F01AFD012280213E4801F015FDB0
:10076C0000224FF480713B4801F00FFD01224FF441
:10077C000071384801F009FD01224FF480613548C1
:10078C0001F003FD344B1B68012B01D100F024FF59
:10079C00324B1B68012B1AD1294B1B68032B0BDD29
:1007AC00274B00221A60264B1B685A1C24490A60EE
:1007BC00184600F07BFE07E0214B1B685A1C2049B1
:1007CC000A60184600F072FEFA2001F09FF81D4BEB
:1007DC001B68012B15D11C4B01221A601B4B1B688B
:1007EC001B4A1360194B9B68194A536000F0F4FEC6
:1007FC00164B9B684FF47A7202FB03F3184601F018
:10080C006BF8FFF79DFC0346012B16D10E4B0C2207
:10081C001A60012220210F4801F0B7FC01224FF48D
:10082C0080710C4801F0B1FC07E000BF06E000BF8E
:10083C0004E000BF02E000BF00E000BF00BF80BDCD
:10084C008C000020AC00002084000020340000202C
:10085C004000002000080140BC000020B400002033
:10086C0080B500AFAD4B1B680B3B0C2B00F27784B3
:10087C0001A252F823F000BFB90800088F09000844
:10088C00CF0A0008370C00086B1100086B11000828
:10089C006B1100086B1100086B1100086B1100083C
:1008AC007B0D0008D90E00080F1000080022202133
:1008BC009B4801F06AFC00224021994801F065FC3C
:1008CC0000228021964801F060FC00224FF48071D8
:1008DC00934801F05AFC00224FF40071904801F04B
:1008EC0054FC00224FF480618D4801F04EFC8D4B7E
:1008FC001B68012B20D18C4B1B68032B0EDD8A4B04
:10090C0000221A60894B00221A60874B1B685A1C04
:10091C0085490A60184600F0C9FD0AE0834B0122A4
:10092C005A60814B1B685A1C7F490A60184600F0BC
:10093C00BDFDFA2000F0EAFFFFF702FC0346012B95
:10094C0002D1764B0C221A60FFF71EFC0346012BDA
:10095C0040F00784714B01221A60754B1B68754A75
:10096C001360734B9B68734A536000F035FE704BF9
:10097C009B684FF47A7202FB03F3184600F0ACFF4D
:10098C00EFE301224021664801F0FFFB01228021A8
:10099C00634801F0FAFB01224FF40071604801F04A
:1009AC00F4FB01224FF480615D4801F0EEFB5D4BDE
:1009BC001B68012B39D15C4B1B68032B0EDD5A4B8A
:1009CC0000221A60594B00221A60574B1B685A1CA4
:1009DC0055490A60184600F069FD23E0534B02228A
:1009EC005A60534B1B68544A82FB03129210DB175C
:1009FC00D31A4E4A93604E4B19684F4B83FB01231D
:100A0C009A10CB17D21A13469B0013445B00CA1AD8
:100A1C00464BDA60444B1B685A1C43490A60184623
:100A2C0000F044FDFA2000F071FF444B1B68012BD1
:100A3C000CD120213A4801F0C0FB4FF480713848AA
:100A4C0001F0BBFB4FF4FA7000F02CFFFFF778FBC2
:100A5C000346012B02D1314B0D221A60FFF782FBAA
:100A6C000346012B40F07F83314B1B68344A1360E3
:100A7C00334B1B680133324A1360314B1B68632BB9
:100A8C0002DD2F4B00221A602D4B1B682A4A82FB79
:100A9C0003129210DB17D31A244A9360284B19685F
:100AAC00254B83FB01239A10CB17D21A13469B00BC
:100ABC0013445B00CA1A1D4BDA60184B15221A60DE
:100ACC0051E301222021164801F05FFB0122802115
:100ADC00134801F05AFB01224FF48071104801F0C9
:100AEC0054FB01224FF480610D4801F04EFB0D4B7D
:100AFC001B68012B4DD10C4B1B68032B22DD0A4BC1
:100B0C0000221A60094B00221A60074B1B685A1C02
:100B1C0005490A60184600F0C9FC37E08400002043
:100B2C0000080140B40000208C0000209000002040
:100B3C00340000204000002067666666A400002098
:100B4C0088000020A04B03225A60A04B5B68A04A8F
:100B5C0082FB03129210DB17D31A9B4A93609B4BB8
:100B6C0059689B4B83FB01239A10CB17D21A13465F
:100B7C009B0013445B00CA1A934BDA60954B1B68BD
:100B8C005A1C94490A60184600F090FCFA2000F0B8
:100B9C00BDFE914B1B68012B0CD140218F4801F0FD
:100BAC000CFB4FF400718D4801F007FB4FF4FA7009
:100BBC0000F078FEFFF7C4FA0346012B02D1884BF4
:100BCC000E221A60FFF7CEFA0346012B40F0CD82BD
:100BDC007E4B5B68834A1360824B1B680133814AEE
:100BEC001360804B1B68632B02DD7E4B00221A6066
:100BFC007C4B1B68764A82FB03129210DB17D31ACC
:100C0C00714A9360774B1968714B83FB01239A10DF
:100C1C00CB17D21A13469B0013445B00CA1A6A4BBB
:100C2C00DA606F4B16221A609FE2012220216B487A
:100C3C0001F0ABFA01224021684801F0A6FA01222A
:100C4C004FF48071654801F0A0FA01224FF4007155
:100C5C00624801F09AFA644B1B68012B39D15D4B49
:100C6C001B68032B0EDD5B4B00221A60564B0022D7
:100C7C001A60584B1B685A1C56490A60184600F0FB
:100C8C0015FC23E0504B04225A60504B9B68504A91
:100C9C0082FB03129210DB17D31A4B4A93604B4B17
:100CAC0099684B4B83FB01239A10CB17D21A13462E
:100CBC009B0013445B00CA1A434BDA60454B1B681C
:100CCC005A1C44490A60184600F0F0FBFA2000F068
:100CDC001DFE414B1B68012B0CD180213F4801F0BC
:100CEC006CFA4FF480613D4801F067FA4FF4FA70EA
:100CFC0000F0D8FDFFF724FA0346012B04D1384B42
:100D0C000B221A60FFF740FAFFF72CFA0346012B6F
:100D1C0040F02D822D4B9B68324A1360314B1B687F
:100D2C000133304A13602F4B1B68632B02DD2D4BB4
:100D3C0000221A602B4B1B68254A82FB031292106F
:100D4C00DB17D31A204A9360264B1968204B83FB80
:100D5C0001239A10CB17D21A13469B0013445B0045
:100D6C00CA1A194BDA601E4B17221A60FFE10122D6
:100D7C0040211A4801F009FA01228021174801F09C
:100D8C0004FA01224FF40071144801F0FEF901221B
:100D9C004FF48061114801F0F8F9134B1B68012BDB
:100DAC0032D10C4B1B68032B20DD0A4B00221A603E
:100DBC00054B00221A60074B1B685A1C05490A6038
:100DCC00184600F073FB1CE090000020340000205B
:100DDC00676666668C000020A400002000080140B5
:100DEC008400002088000020B40000209B4B0222CD
:100DFC005A609B4B1B685A1C99490A60184600F0B4
:100E0C0055FBFA2000F082FD964B1B68012B0CD190
:100E1C002021954801F0D1F94FF48071924801F0EE
:100E2C00CCF94FF4FA7000F03DFDFFF789F9034659
:100E3C00012B02D18D4B0D221A60FFF793F903465B
:100E4C00012B27D18A4B1B680133894A1360884BCD
:100E5C001B68632B02DD864B00221A60844B1B68D7
:100E6C00844A82FB03129210DB17D31A7B4A9360DD
:100E7C007F4B19687F4B83FB01239A10CB17D21A37
:100E8C0013469B0013445B00CA1A744BDA60774B11
:100E9C0015221A60FFF778F90346012B40F069819F
:100EAC00724B0C221A60744B5A68714B1B689A4235
:100EBC0080F25F816E4B1B686F4A13606E4B1A6831
:100ECC006D4B5B68D31A6C4A936052E1012220216E
:100EDC00654801F05AF901228021634801F055F967
:100EEC0001224FF48071604801F04FF901224FF458
:100EFC0080615D4801F049F9604B1B68012B20D1E2
:100F0C00574B1B68032B0EDD554B00221A60534BBD
:100F1C0000221A60524B1B685A1C51490A60184631
:100F2C0000F0C4FA0AE04D4B03225A604C4B1B688C
:100F3C005A1C4B490A60184600F0B8FAFA2000F027
:100F4C00E5FC484B1B68012B0CD14021464801F0B5
:100F5C0034F94FF40071444801F02FF94FF4FA7052
:100F6C0000F0A0FCFFF7ECF80346012B02D13F4B3D
:100F7C000E221A60FFF7F6F80346012B27D13C4BE3
:100F8C001B6801333A4A1360394B1B68632B02DD33
:100F9C00374B00221A60364B1B68364A82FB031211
:100FAC009210DB17D31A2D4A9360314B1968314BD1
:100FBC0083FB01239A10CB17D21A13469B001344C0
:100FCC005B00CA1A254BDA60284B16221A60FFF711
:100FDC00DBF80346012B40F0CE80244B0D221A6027
:100FEC00234B1B68052B00F3C680214B1B68224A40
:100FFC005360214B5A68204B9B6813441E4A136064
:10100C00B9E001222021184801F0BFF8012240214B
:10101C00154801F0BAF801224FF48071124801F022
:10102C00B4F801224FF400710F4801F0AEF8134BE5
:10103C001B68012B32D10A4B1B68032B20DD084B9C
:10104C0000221A60054B00221A60054B1B685A1CC3
:10105C0003490A60184600F029FA1CE090000020B1
:10106C008C000020A4000020000801408400002017
:10107C00880000206766666634000020B4000020FB
:10108C003F4B04225A603F4B1B685A1C3D490A6077
:10109C00184600F00BFAFA2000F038FC3A4B1B68AB
:1010AC00012B0CD18021394801F087F84FF4806175
:1010BC00364801F082F84FF4FA7000F0F3FBFFF7BA
:1010CC003FF80346012B02D1314B0B221A60FFF77C
:1010DC0049F80346012B27D12E4B1B6801332D4AAF
:1010EC0013602C4B1B68632B02DD2A4B00221A6009
:1010FC00284B1B68284A82FB03129210DB17D31A69
:10110C001F4A9360234B1968234B83FB01239A10CE
:10111C00CB17D21A13469B0013445B00CA1A184B08
:10112C00DA601B4B17221A60FFF72EF80346012BCF
:10113C0023D1174B0E221A60184B5A68154B1B689B
:10114C001344632B19DC134B1B68144A9360134B29
:10115C005A68124B9B681344104A13600DE000BF91
:10116C000CE000BF0AE000BF08E000BF06E000BFD3
:10117C0004E000BF02E000BF00E000BF00BF80BD84
:10118C00900000208C000020A400002000080140EA
:10119C00840000208800002067666666340000200A
:1011AC0080B582B000AF78607B68002B22D1002222
:1011BC000121BD4800F0E9FF00220221BA4800F0ED
:1011CC00E4FF00220421B84800F0DFFF00220821D0
:1011DC00B54800F0DAFF00221021B34800F0D5FF2B
:1011EC0000222021B04800F0D0FF01224021AE485F
:1011FC0000F0CBFF7B68012B22D101220121AA48F0
:10120C0000F0C3FF00220221A74800F0BEFF00221D
:10121C000421A54800F0B9FF01220821A24800F0E2
:10122C00B4FF01221021A04800F0AFFF01222021C1
:10123C009D4800F0AAFF012240219B4800F0A5FF29
:10124C007B68022B22D100220121974800F09DFFE0
:10125C0000220221944800F098FF012204219248B8
:10126C0000F093FF002208218F4800F08EFF00222F
:10127C0010218D4800F089FF012220218A4800F0BE
:10128C0084FF00224021884800F07FFF7B68032BFD
:10129C0022D100220121844800F077FF0022022194
:1012AC00814800F072FF002204217F4800F06DFF9E
:1012BC00002208217C4800F068FF012210217A48A6
:1012CC0000F063FF01222021774800F05EFF00222E
:1012DC004021754800F059FF7B68042B22D1012274
:1012EC000121714800F051FF002202216E4800F0EC
:1012FC004CFF002204216C4800F047FF012208211A
:10130C00694800F042FF01221021674800F03DFFC0
:10131C0000222021644800F038FF0022402162485E
:10132C0000F033FF7B68052B22D1002201215E489F
:10133C0000F02BFF012202215B4800F026FF002267
:10134C000421594800F021FF00220821564800F0E2
:10135C001CFF01221021544800F017FF002220210D
:10136C00514800F012FF002240214F4800F00DFFC1
:10137C007B68062B22D1002201214B4800F005FF8F
:10138C0001220221484800F000FF002204214648B7
:10139C0000F0FBFE00220821434800F0F6FE00227C
:1013AC001021414800F0F1FE002220213E4800F0BF
:1013BC00ECFE002240213C4800F0E7FE7B68072B46
:1013CC0022D100220121384800F0DFFE0022022148
:1013DC00354800F0DAFE00220421334800F0D5FE37
:1013EC0001220821304800F0D0FE012210212E48A5
:1013FC0000F0CBFE012220212B4800F0C6FE01227A
:10140C004021294800F0C1FE7B68082B22D1002224
:10141C000121254800F0B9FE00220221224800F0EB
:10142C00B4FE00220421204800F0AFFE0022082167
:10143C001D4800F0AAFE002210211B4800F0A5FE5A
:10144C0000222021184800F0A0FE0022402116485E
:10145C0000F09BFE7B68092B22D10022012112484F
:10146C0000F093FE002202210F4800F08EFE0022B5
:10147C0004210D4800F089FE002208210A4800F0E2
:10148C0084FE01221021084800F07FFE002220215A
:10149C00054800F07AFE00224021034800F075FE5A
:1014AC0000BF0837BD4680BD000C014080B582B03E
:1014BC0000AF78607B68032B00F2848001A252F8A5
:1014CC0023F000BFE11400081D1500085915000891
:1014DC009515000801224FF480513D4800F055FE4F
:1014EC0000224FF400513A4800F04FFE00224FF416
:1014FC008041374800F049FE00224FF40041344847
:10150C0000F043FE334B1B681846FFF749FE5AE0C8
:10151C0000224FF480512E4800F037FE01224FF488
:10152C0000512B4800F031FE00224FF48041284836
:10153C0000F02BFE00224FF40041254800F025FE60
:10154C00244B5B681846FFF72BFE3CE000224FF45F
:10155C0080511F4800F019FE00224FF400511C4826
:10156C0000F013FE01224FF48041194800F00DFEEB
:10157C0000224FF40041164800F007FE154B9B6803
:10158C001846FFF70DFE1EE000224FF48051104864
:10159C0000F0FBFD00224FF400510D4800F0F5FD6A
:1015AC0000224FF480410A4800F0EFFD01224FF475
:1015BC000041074800F0E9FD064BDB681846FFF7D1
:1015CC00EFFD00E000BF00BF0837BD4680BD00BF87
:1015DC00000801409000002080B500AF204B1B6834
:1015EC00013B1F4A13601E4B5B68013B1C4A536056
:1015FC001B4B5B681B4A82FB03129210DB17D31A3E
:10160C00194A1360164B5968164B83FB01239A1029
:10161C00CB17D21A13469B0013445B00CA1A124B09
:10162C005A600F4B1B680F4A82FB03129210DB1798
:10163C00D31A0D4A93600A4B19680A4B83FB01239A
:10164C009A10CB17D21A13469B0013445B00CA1A8C
:10165C00054BDA604FF47A7000F072F900BF80BD70
:10166C0040000020676666669000002080B500AFE1
:10167C0000F08AFA00F018F800F09EF800F050F82C
:10168C00074801F0EBF94FF4FA7000F00BF9054B39
:10169C0000221A60FEF7A4FEFFF7E2F8FAE700BF9B
:1016AC00C00000208400002080B590B000AF07F18E
:1016BC00180328220021184601F088FD3B1D00224A
:1016CC001A605A609A60DA601A610223BB610123C6
:1016DC00BB621023FB6200237B6307F118031846DF
:1016EC0000F084FD0346002B01D000F0D5F80F2349
:1016FC007B600023BB600023FB6000233B61002365
:10170C007B613B1D0021184600F0F0FF0346002BC7
:10171C0001D000F0C1F800BF4037BD4680BD0000CD
:10172C0080B586B000AF07F1080300221A605A603A
:10173C009A60DA603B4600221A605A601D4B4FF0EB
:10174C0080421A601B4B41F63F725A60194B0022C3
:10175C009A60184B0922DA60164B00221A61154B5D
:10176C0000229A61134801F029F90346002B01D09D
:10177C0000F092F84FF48053BB6007F10803194650
:10178C000C4801F0BFFA0346002B01D000F084F89E
:10179C0000233B6000237B603B461946054801F063
:1017AC0087FC0346002B01D000F076F800BF1837F9
:1017BC00BD4680BDC000002080B586B000AF07F1EB
:1017CC00080300221A605A609A60DA60274B9B6902
:1017DC00264A43F004039361244B9B6903F00403F2
:1017EC007B607B68214B9B69204A43F00803936123
:1017FC001E4B9B6903F008033B603B6800224FF2D1
:10180C00E0711B4800F0C1FC00227F21194800F058
:10181C00BCFC0E23BB600023FB6001233B6107F182
:10182C0008031946124800F01FFB4FF2E073BB602F
:10183C000123FB6000233B6102237B6107F108035A
:10184C0019460B4800F010FB7F23BB600123FB60A3
:10185C0000233B6102237B6107F10803194605480D
:10186C0000F002FB00BF1837BD4680BD00100240DF
:10187C0000080140000C014080B582B000AF7860D8
:10188C0000F078F8FEF7B6FCFEF706FDFEF756FD05
:10189C0000BF0837BD4680BD80B400AF72B600BF34
:1018AC00FEE7000080B483B000AF7860074B1B6884
:1018BC007A6892FBF3F3064A1360064B00221A6017
:1018CC0000BF0C37BD4680BC704700BF4C000020E9
:1018DC00A0000020A400002080B483B000AF78608A
:1018EC00074B1B687A6892FBF3F3064A1360064BAE
:1018FC0000221A6000BF0C37BD4680BC704700BF89
:10190C004C000020A8000020AC00002080B483B064
:10191C0000AF7860074B1B687A6892FBF3F3064ABA
:10192C001360064B00221A6000BF0C37BD4680BC0A
:10193C00704700BF4C000020B0000020B400002015
:10194C0080B483B000AF7860074B1B687A6892FB59
:10195C00F3F3064A1360064B00221A6000BF0C37E3
:10196C00BD4680BC704700BF4C000020B800002072
:10197C00BC00002080B400AF214B1B68002B0BDD9A
:10198C001F4B1B68013B1E4A13601D4B1B68002B31
:10199C0002DC1C4B01221A601B4B1B68002B0BDD5D
:1019AC00194B1B68013B184A1360174B1B68002B23
:1019BC0002DC164B01221A60154B1B68002B0BDD49
:1019CC00134B1B68013B124A1360114B1B68002B15
:1019DC0002DC104B01221A600F4B1B68002B0BDD35
:1019EC000D4B1B68013B0C4A13600B4B1B68002B07
:1019FC0002DC0A4B01221A6000BFBD4680BC704756
:101A0C00A0000020A4000020A8000020AC000020B2
:101A1C00B0000020B4000020B8000020BC00002062
:101A2C0080B485B000AF154B9B69144A43F0010399
:101A3C009361124B9B6903F00103BB60BB680F4BB6
:101A4C00DB690E4A43F08053D3610C4BDB6903F026
:101A5C0080537B607B680A4B5B68FB60FB6823F000
:101A6C00E063FB60FB6843F08063FB60044AFB6847
:101A7C00536000BF1437BD4680BC70470010024055
:101A8C000000014080B584B000AF78607B681B68B3
:101A9C00B3F1804F13D10C4BDB690B4A43F00103BC
:101AAC00D361094BDB6903F00103FB60FB68002287
:101ABC0000211C2000F0A1F91C2000F0BAF900BF95
:101ACC001037BD4680BD00BF0010024080B400AF8F
:101ADC00FEE780B400AFFEE780B400AFFEE780B451
:101AEC0000AFFEE780B400AFFEE780B400AF00BFEC
:101AFC00BD4680BC704780B400AF00BFBD4680BC03
:101B0C00704780B400AF00BFBD4680BC704780B545
:101B1C0000AF00F07FF800BF80BD000080B500AFC3
:101B2C00024800F0E7FF00BF80BD00BFC0000020EE
:101B3C0080B400AF00BFBD4680BC70470C480D4957
:101B4C000D4A002302E0D458C4500433C4188C420C
:101B5C00F9D30A4A0A4C002301E013600432A24272
:101B6C00FBD3FFF7E5FF01F00DFBFFF77FFD70479F
:101B7C00000000205C000020283200085C000020DF
:101B8C000C010020FEE7000080B500AF084B1B687D
:101B9C00074A43F010031360032000F023F90F20D1
:101BAC0000F008F8FFF73CFF0023184680BD00BF8B
:101BBC000020024080B582B000AF7860124B1A68EA
:101BCC00124B1B7819464FF47A73B3FBF1F3B2FB4B
:101BDC00F3F3184600F03BF90346002B01D0012328
:101BEC000EE07B680F2B0AD8002279684FF0FF308B
:101BFC0000F003F9064A7B681360002300E0012320
:101C0C0018460837BD4680BD500000205800002003
:101C1C005400002080B400AF054B1B781A46054BCE
:101C2C001B681344034A136000BFBD4680BC704759
:101C3C00580000200801002080B400AF024B1B6844
:101C4C001846BD4680BC70470801002080B485B0A2
:101C5C0000AF78607B6803F00703FB600C4BDB681C
:101C6C00BB60BA684FF6FF031340BB60FB681A02F7
:101C7C00BB68134343F0BF6343F40033BB60044AB7
:101C8C00BB68D36000BF1437BD4680BC704700BF33
:101C9C0000ED00E080B400AF044BDB681B0A03F0DE
:101CAC0007031846BD4680BC704700BF00ED00E03E
:101CBC0080B483B000AF0346FB7197F90730002B5B
:101CCC000BDBFB7903F01F02064997F907305B0920
:101CDC00012000FA02F241F8232000BF0C37BD4668
:101CEC0080BC704700E100E080B483B000AF0346D5
:101CFC003960FB7197F90730002B0ADB3B68DAB2CD
:101D0C000C4997F907301201D2B20B4483F8002327
:101D1C000AE03B68DAB20849FB7903F00F03043B95
:101D2C001201D2B20B441A7600BF0C37BD4680BCF0
:101D3C00704700BF00E100E000ED00E080B489B026
:101D4C0000AFF860B9607A60FB6803F00703FB61D1
:101D5C00FB69C3F10703042B28BF0423BB61FB6998
:101D6C000433062B02D9FB69033B00E000237B61A3
:101D7C004FF0FF32BB6902FA03F3DA43BB681A4037
:101D8C007B699A404FF0FF317B6901FA03F3D94329
:101D9C007B680B40134318462437BD4680BC704704
:101DAC0080B582B000AF78607B68013BB3F1807F77
:101DBC0001D301230FE00A4A7B68013B53600F21DA
:101DCC004FF0FF30FFF790FF054B00229A60044B59
:101DDC0007221A60002318460837BD4680BD00BF95
:101DEC0010E000E080B582B000AF78607868FFF753
:101DFC002DFF00BF0837BD4680BD80B586B000AF53
:101E0C000346B9607A60FB7300237B61FFF742FFE6
:101E1C0078617A68B9687869FFF790FF024697F99C
:101E2C000F3011461846FFF75FFF00BF1837BD464D
:101E3C0080BD80B582B000AF0346FB7197F90730C7
:101E4C001846FFF735FF00BF0837BD4680BD80B58B
:101E5C0082B000AF78607868FFF7A2FF034618469F
:101E6C000837BD4680BD000080B48BB000AF7860F1
:101E7C00396000237B6200233B6248E101227B6ACC
:101E8C0002FA03F3FB613B681B68FA691340BB6100
:101E9C00BA69FB699A4240F037813B685B68A34A98
:101EAC0093425ED0A14A934275D8A14A934258D02E
:101EBC009F4A93426FD89F4A934252D09D4A934275
:101ECC0069D89D4A93424CD09B4A934263D89B4A13
:101EDC00934246D0994A93425DD8122B2AD8122BA2
:101EEC0059D801A252F823F06F1F0008491F0008AF
:101EFC005B1F00089D1F0008A31F0008A31F0008FC
:101F0C00A31F0008A31F0008A31F0008A31F00089D
:101F1C00A31F0008A31F0008A31F0008A31F00088D
:101F2C00A31F0008A31F0008A31F0008511F0008CF
:101F3C00651F0008824A934213D02CE03B68DB6893
:101F4C003B6229E03B68DB6804333B6224E03B687E
:101F5C00DB6808333B621FE03B68DB680C333B6299
:101F6C001AE03B689B68002B02D104233B6213E010
:101F7C003B689B68012B05D108233B627B68FA699F
:101F8C001A6109E008233B627B68FA695A6103E035
:101F9C0000233B6200E000BFBB69FF2B01D87B68CC
:101FAC0001E07B6804337B61BB69FF2B02D87B6A41
:101FBC009B0002E07B6A083B9B003B617B691A68D3
:101FCC000F213B6901FA03F3DB431A40396A3B6981
:101FDC0001FA03F31A437B691A603B685B6803F0F0
:101FEC008053002B00F09080564B9B69554A43F070
:101FFC0001039361534B9B6903F00103BB60BB6806
:10200C00514A7B6A9B08023352F82330FB607B6A8F
:10201C0003F003039B000F2202FA03F3DB43FA687D
:10202C001340FB607B68494A93420DD07B68484A59
:10203C00934207D07B68474A934201D1022304E0C4
:10204C00032302E0012300E000237A6A02F003027A
:10205C0092009340FA681343FB603B497B6A9B08F0
:10206C000233FA6841F823203B685B6803F4803341
:10207C00002B06D0384B1A683749BB6913430B60E9
:10208C0006E0354B1A68BB69DB43334913400B60E0
:10209C003B685B6803F40033002B06D02E4B5A6868
:1020AC002D49BB6913434B6006E02B4B5A68BB6947
:1020BC00DB43294913404B603B685B6803F4801396
:1020CC00002B06D0244B9A682349BB6913438B60C1
:1020DC0006E0214B9A68BB69DB431F4913408B60B8
:1020EC003B685B6803F40013002B06D01A4BDA68CC
:1020FC001949BB691343CB6006E0174BDA68BB691F
:10210C00DB4315491340CB607B6A01337B623B6830
:10211C001A687B6A22FA03F3002B7FF4AFAE00BF80
:10212C0000BF2C37BD4680BC704700BF000032108A
:10213C0000003110000022100000211000001210CD
:10214C000000111000100240000001400008014086
:10215C00000C0140001001400004014080B485B027
:10216C0000AF78600B467B807B689A687B88134055
:10217C00002B02D00123FB7301E00023FB73FB7BDC
:10218C0018461437BD4680BC704780B483B000AF8E
:10219C0078600B467B8013467B707B78002B03D0DA
:1021AC007A887B681A6103E07B881A047B681A6161
:1021BC0000BF0C37BD4680BC704780B485B000AF03
:1021CC0078600B467B807B68DB68FB607A88FB68F9
:1021DC0013401A04FB68D9437B880B401A437B6875
:1021EC001A6100BF1437BD4680BC704780B586B0FD
:1021FC0000AF78607B68002B01D101236CE27B6817
:10220C001B6803F00103002B00F08780924B5B6886
:10221C0003F00C03042B0CD08F4B5B6803F00C0306
:10222C00082B12D18C4B5B6803F48033B3F5803FE1
:10223C000BD1894B1B6803F40033002B6CD07B68EB
:10224C005B68002B68D1012346E27B685B68B3F5C1
:10225C00803F06D1804B1B687F4A43F48033136068
:10226C002EE07B685B68002B0CD17B4B1B687A4A99
:10227C0023F480331360784B1B68774A23F4802354
:10228C0013601DE07B685B68B3F5A02F0CD1724B1B
:10229C001B68714A43F4802313606F4B1B686E4AB2
:1022AC0043F4803313600BE06B4B1B686A4A23F4D6
:1022BC0080331360684B1B68674A23F480231360D8
:1022CC007B685B68002B13D0FFF7B6FC386108E025
:1022DC00FFF7B2FC02463B69D31A642B01D90323E6
:1022EC00FAE15D4B1B6803F40033002BF0D014E0D3
:1022FC00FFF7A2FC386108E0FFF79EFC02463B6941
:10230C00D31A642B01D90323E6E1534B1B6803F466
:10231C000033002BF0D100E000BF7B681B6803F09A
:10232C000203002B63D04C4B5B6803F00C03002BB7
:10233C000BD0494B5B6803F00C03082B1CD1464BAC
:10234C005B6803F48033002B16D1434B1B6803F0FE
:10235C000203002B05D07B681B69012B01D00123E4
:10236C00BAE13D4B1B6823F0F8027B685B69DB002C
:10237C00394913430B603AE07B681B69002B20D072
:10238C00364B01221A60FFF757FC386108E0FFF763
:10239C0053FC02463B69D31A022B01D903239BE160
:1023AC002D4B1B6803F00203002BF0D02A4B1B684B
:1023BC0023F0F8027B685B69DB00274913430B6051
:1023CC0015E0264B00221A60FFF736FC386108E056
:1023DC00FFF732FC02463B69D31A022B01D90323C7
:1023EC007AE11D4B1B6803F00203002BF0D17B68D4
:1023FC001B6803F00803002B3AD07B689B69002B09
:10240C0019D0174B01221A60FFF716FC386108E04F
:10241C00FFF712FC02463B69D31A022B01D90323A6
:10242C005AE10D4B5B6A03F00203002BF0D0012044
:10243C0000F0A6FA1CE00A4B00221A60FFF7FCFB26
:10244C0038610FE0FFF7F8FB02463B69D31A022B09
:10245C0008D9032340E100BF0010024000004242B3
:10246C00800442429E4B5B6A03F00203002BE9D1CD
:10247C007B681B6803F00403002B00F0A68000238C
:10248C00FB75974BDB6903F08053002B0DD1944BFC
:10249C00DB69934A43F08053D361914BDB6903F0C2
:1024AC008053BB60BB680123FB758E4B1B6803F428
:1024BC008073002B18D18B4B1B688A4A43F48073B2
:1024CC001360FFF7B9FB386108E0FFF7B5FB024674
:1024DC003B69D31A642B01D90323FDE0814B1B68A4
:1024EC0003F48073002BF0D07B68DB68012B06D1E2
:1024FC007B4B1B6A7A4A43F0010313622DE07B6825
:10250C00DB68002B0CD1764B1B6A754A23F0010358
:10251C001362734B1B6A724A23F0040313621CE0B0
:10252C007B68DB68052B0CD16D4B1B6A6C4A43F046
:10253C00040313626A4B1B6A694A43F0010313627A
:10254C000BE0674B1B6A664A23F001031362644B72
:10255C001B6A634A23F0040313627B68DB68002B5D
:10256C0015D0FFF769FB38610AE0FFF765FB0246FF
:10257C003B69D31A41F28832934201D90323ABE071
:10258C00574B1B6A03F00203002BEED014E0FFF74D
:10259C0053FB38610AE0FFF74FFB02463B69D31A45
:1025AC0041F28832934201D9032395E04C4B1B6ACC
:1025BC0003F00203002BEED1FB7D012B05D1484B20
:1025CC00DB69474A23F08053D3617B68DB69002BBE
:1025DC0000F08180424B5B6803F00C03082B61D048
:1025EC007B68DB69022B46D13F4B00221A60FFF758
:1025FC0023FB386108E0FFF71FFB02463B69D31A47
:10260C00022B01D9032367E0354B1B6803F00073E1
:10261C00002BF0D17B681B6AB3F5803F08D1304B9F
:10262C005B6823F400327B689B682D4913434B6035
:10263C002B4B5B6823F474127B68196A7B685B6AAA
:10264C000B43274913434B60274B01221A60FFF7BA
:10265C00F3FA386108E0FFF7EFFA02463B69D31A48
:10266C00022B01D9032337E01D4B1B6803F00073C9
:10267C00002BF0D02FE01C4B00221A60FFF7DCFA85
:10268C00386108E0FFF7D8FA02463B69D31A022BEF
:10269C0001D9032320E0124B1B6803F00073002BBD
:1026AC00F0D118E07B68DB69012B01D1012313E029
:1026BC000B4B5B68FB60FB6803F480327B681B6A26
:1026CC009A4206D1FB6803F470127B685B6A9A42EB
:1026DC0001D0012300E0002318461837BD4680BD09
:1026EC0000100240007000406000424280B584B08F
:1026FC0000AF786039607B68002B01D10123D0E0FA
:10270C006A4B1B6803F007033A689A4210D9674B6F
:10271C001B6823F0070265493B6813430B60634B4E
:10272C001B6803F007033A689A4201D00123B8E012
:10273C007B681B6803F00203002B20D07B681B68AE
:10274C0003F00403002B05D0594B5B68584A43F443
:10275C00E06353607B681B6803F00803002B05D013
:10276C00534B5B68524A43F460535360504B5B6865
:10277C0023F0F0027B689B684D4913434B607B68E8
:10278C001B6803F00103002B40D07B685B68012BB6
:10279C0007D1474B1B6803F40033002B15D10123E1
:1027AC007FE07B685B68022B07D1414B1B6803F011
:1027BC000073002B09D1012373E03D4B1B6803F020
:1027CC000203002B01D101236BE0394B5B6823F032
:1027DC0003027B685B68364913434B60FFF72CFAA6
:1027EC00F8600AE0FFF728FA0246FB68D31A41F2B8
:1027FC008832934201D9032353E02D4B5B6803F0DD
:10280C000C027B685B689B009A42EBD1274B1B68E0
:10281C0003F007033A689A4210D2244B1B6823F04A
:10282C00070222493B6813430B60204B1B6803F0E3
:10283C0007033A689A4201D0012332E07B681B6897
:10284C0003F00403002B08D0194B5B6823F4E062FF
:10285C007B68DB68164913434B607B681B6803F08D
:10286C000803002B09D0124B5B6823F460527B6881
:10287C001B69DB000E4913434B6000F021F8024644
:10288C000B4B5B681B0903F00F030A49CB5C22FA64
:10289C0003F3094A1360094B1B681846FFF78AF9C2
:1028AC00002318461037BD4680BD00BF00200240F3
:1028BC00001002401032000850000020540000208C
:1028CC0090B48AB000AF2A4B3C1D0FCB84E80F00AC
:1028DC0040F201233B800023FB610023BB610023FA
:1028EC007B6200237B6100233B62224B5B68FB61B4
:1028FC00FB6903F00C03042B02D0082B03D02DE052
:10290C001D4B3B622DE0FB699B0C03F00F0307F1A1
:10291C002802134413F8243C7B61FB6903F48033D5
:10292C00002B13D0134B5B685B0C03F0010307F116
:10293C002802134413F8283CBB617B690E4A02FB46
:10294C0003F2BB69B2FBF3F37B6204E07B690B4AD5
:10295C0002FB03F37B627B6A3B6202E0064B3B6249
:10296C0000BF3B6A18462837BD4690BC704700BF75
:10297C00003200080010024000127A0000093D00ED
:10298C0080B485B000AF78600A4B1B680A4AA2FB82
:10299C0003235B0A7A6802FB03F3FB6000BFFB684E
:1029AC005A1EFA60002BF9D100BF00BF1437BD4688
:1029BC0080BC704750000020D34D621080B582B0AF
:1029CC0000AF78607B68002B01D1012341E07B686C
:1029DC0093F83D30DBB2002B06D17B68002283F8E4
:1029EC003C207868FFF74EF87B68022283F83D2084
:1029FC007B681A687B6804331946104600F06AFA43
:102A0C007B68012283F846207B68012283F83E20F4
:102A1C007B68012283F83F207B68012283F84020E9
:102A2C007B68012283F841207B68012283F84220D5
:102A3C007B68012283F843207B68012283F84420C1
:102A4C007B68012283F845207B68012283F83D20B6
:102A5C00002318460837BD4680BD000080B485B001
:102A6C0000AF78607B6893F83D30DBB2012B01D06E
:102A7C00012335E07B68022283F83D207B681B68CC
:102A8C00DA687B681B6842F00102DA607B681B68BD
:102A9C00164A934209D07B681B68B3F1804F04D06F
:102AAC007B681B68124A934211D17B681B689B6838
:102ABC0003F00703FB60FB68062B10D07B681B68D8
:102ACC001A687B681B6842F001021A6007E07B6899
:102ADC001B681A687B681B6842F001021A600023AD
:102AEC0018461437BD4680BC704700BF002C01400F
:102AFC000004004080B582B000AF78607B681B6832
:102B0C001B6903F00203022B22D17B681B68DB6874
:102B1C0003F00203022B1BD17B681B686FF00202CF
:102B2C001A617B6801221A777B681B689B6903F02A
:102B3C000303002B03D0786800F0B1F905E0786846
:102B4C0000F0A4F9786800F0B3F97B6800221A77DA
:102B5C007B681B681B6903F00403042B22D17B6880
:102B6C001B68DB6803F00403042B1BD17B681B6818
:102B7C006FF004021A617B6802221A777B681B686B
:102B8C009B6903F44073002B03D0786800F087F93D
:102B9C0005E0786800F07AF9786800F089F97B68CC
:102BAC0000221A777B681B681B6903F00803082B4B
:102BBC0022D17B681B68DB6803F00803082B1BD150
:102BCC007B681B686FF008021A617B6804221A7715
:102BDC007B681B68DB6903F00303002B03D0786868
:102BEC0000F05DF905E0786800F050F9786800F0C5
:102BFC005FF97B6800221A777B681B681B6903F0FE
:102C0C001003102B22D17B681B68DB6803F01003C8
:102C1C00102B1BD17B681B686FF010021A617B684C
:102C2C0008221A777B681B68DB6903F44073002B5E
:102C3C0003D0786800F033F905E0786800F026F9E5
:102C4C00786800F035F97B6800221A777B681B687E
:102C5C001B6903F00103012B0ED17B681B68DB6839
:102C6C0003F00103012B07D17B681B686FF0010295
:102C7C001A617868FEF700FE7B681B681B6903F01D
:102C8C008003802B0ED17B681B68DB6803F080030C
:102C9C00802B07D17B681B686FF080021A61786803
:102CAC0000F067FA7B681B681B6903F04003402B3C
:102CBC000ED17B681B68DB6803F04003402B07D107
:102CCC007B681B686FF040021A61786800F0F9F8B5
:102CDC007B681B681B6903F02003202B0ED17B68DB
:102CEC001B68DB6803F02003202B07D17B681B6873
:102CFC006FF020021A61786800F032FA00BF0837D2
:102D0C00BD4680BD80B584B000AF786039607B680B
:102D1C0093F83C30012B01D10223B3E07B680122F4
:102D2C0083F83C207B68022283F83D207B681B687B
:102D3C009B68FB60FB6823F07703FB60FB6823F464
:102D4C007F43FB607B681B68FA689A603B681B6872
:102D5C00B3F5005F3ED0B3F5005F00F28780B3F5AA
:102D6C00805F00F08580B3F5805F7FD8702B1AD020
:102D7C00702B7BD8602B50D0602B77D8502B3CD04D
:102D8C00502B73D8402B58D0402B6FD8302B64D09D
:102D9C00302B6BD8202B60D0202B67D8002B5CD02D
:102DAC00102B5AD062E07B6818683B6899683B68C6
:102DBC005A683B68DB6800F05CF97B681B689B68B1
:102DCC00FB60FB6843F07703FB607B681B68FA6869
:102DDC009A604EE07B6818683B6899683B685A6853
:102DEC003B68DB6800F045F97B681B689A687B6878
:102DFC001B6842F480429A603BE07B6818683B6831
:102E0C0059683B68DB681A4600F0BCF87B681B68A5
:102E1C005021184600F013F92BE07B6818683B68CA
:102E2C0059683B68DB681A4600F0DAF87B681B6867
:102E3C006021184600F003F91BE07B6818683B68BA
:102E4C0059683B68DB681A4600F09CF87B681B6885
:102E5C004021184600F0F3F80BE07B681A683B68D9
:102E6C001B681946104600F0EAF802E000BF00E0CB
:102E7C0000BF7B68012283F83D207B68002283F829
:102E8C003C20002318461037BD4680BD80B483B06B
:102E9C0000AF786000BF0C37BD4680BC704780B473
:102EAC0083B000AF786000BF0C37BD4680BC704764
:102EBC0080B483B000AF786000BF0C37BD4680BCD7
:102ECC00704780B483B000AF786000BF0C37BD464C
:102EDC0080BC704780B485B000AF786039607B6887
:102EEC001B68FB607B68254A934207D07B68B3F173
:102EFC00804F03D07B68224A934208D1FB6823F0B1
:102F0C007003FB603B685B68FA681343FB607B688B
:102F1C001A4A934207D07B68B3F1804F03D07B6889
:102F2C00174A934208D1FB6823F44073FB603B685B
:102F3C00DB68FA681343FB60FB6823F080023B6894
:102F4C005B691343FB607B68FA681A603B689A689C
:102F5C007B68DA623B681A687B689A627B68074A0E
:102F6C00934203D13B681A697B681A637B68012220
:102F7C005A6100BF1437BD4680BC7047002C01401D
:102F8C000004004080B487B000AFF860B9607A608C
:102F9C00FB681B6A7B61FB681B6A23F00102FB6800
:102FAC001A62FB689B693B613B6923F0F0033B6150
:102FBC007B681B013A6913433B617B6923F00A036D
:102FCC007B617A69BB6813437B61FB683A699A61E0
:102FDC00FB687A691A6200BF1C37BD4680BC70471B
:102FEC0080B487B000AFF860B9607A60FB681B6A88
:102FFC0023F01002FB681A62FB689B697B61FB681B
:10300C001B6A3B617B6923F470437B617B681B0308
:10301C007A6913437B613B6923F0A0033B61BB6876
:10302C001B013A6913433B61FB687A699A61FB683F
:10303C003A691A6200BF1C37BD4680BC704780B429
:10304C0085B000AF786039607B689B68FB60FB687B
:10305C0023F07003FB603A68FB68134343F00703EB
:10306C00FB607B68FA689A6000BF1437BD4680BC71
:10307C00704780B487B000AFF860B9607A603B608D
:10308C00FB689B687B617B6923F47F437B613B68B6
:10309C001A027B681A43BB6813437A6913437B613A
:1030AC00FB687A699A6000BF1C37BD4680BC7047CC
:1030BC0080B485B000AF786039607B6893F83C30A1
:1030CC00012B01D1022341E07B68012283F83C20D3
:1030DC007B68022283F83D207B681B685B68FB6081
:1030EC007B681B689B68BB60FB6823F07003FB600C
:1030FC003B681B68FA681343FB607B681B68FA68C3
:10310C005A607B681B68144A934209D07B681B6821
:10311C00B3F1804F04D07B681B68104A93420CD1EA
:10312C00BB6823F08003BB603B685B68BA681343E1
:10313C00BB607B681B68BA689A607B68012283F865
:10314C003D207B68002283F83C200023184614376E
:10315C00BD4680BC704700BF002C014000040040FD
:10316C0080B483B000AF786000BF0C37BD4680BC24
:10317C00704780B483B000AF786000BF0C37BD4699
:10318C0080BC704770B500260C4D0D4C641BA41010
:10319C00A64209D100F022F800260A4D0A4C641B05
:1031AC00A410A64205D170BD55F8043B98470136D2
:1031BC00EEE755F8043B98470136F2E72032000859
:1031CC002032000820320008243200080346024452
:1031DC00934200D1704703F8011BF9E7F8B500BF23
:1031EC00F8BC08BC9E467047F8B500BFF8BC08BCDC
:0431FC009E46704734
:1032000002030405060708090A0B0C0D0E0F101027
:103210000000000000000000010203040607080986
:043220003101000870
:043224000D01000890
:103228000100000001000000010000000100000092
:103238000100000001000000010000000100000082
:103248000100000001000000010000000100000072
:10325800320000000500000002000000030000002A
:103268000500000002000000030000000A00000042
:0C3278000024F400100000000100000021
:0400000508001B498B
:00000001FF
